:020000040800F2
:10000000005000202D3B0008A5360008A736000848
:10001000A9360008AB360008AD3600080000000025
:10002000000000000000000000000000AF360008E3
:10003000B136000800000000B3360008B5360008ED
:10004000753B0008753B0008753B0008753B0008D0
:10005000753B0008753B0008753B0008753B0008C0
:10006000753B0008753B0008753B0008753B0008B0
:10007000753B0008753B0008753B0008753B0008A0
:10008000753B0008753B0008753B0008753B000890
:10009000BD360008753B0008753B0008753B00083D
:1000A000753B0008753B0008753B0008753B000870
:1000B000753B0008753B0008753B0008753B000860
:1000C000753B0008753B0008753B0008753B000850
:1000D000753B0008753B0008753B0008753B000840
:1000E000753B0008753B0008753B000800000000E8
:1000F0000000000000000000000000000000000000
:0C01000000000000000000005FF808F1A3
:10010C0010B5054C237833B9044B13B10448AFF345
:10011C0000800123237010BD20010020000000008E
:10012C00C03B000808B5034B1BB103490348AFF3B0
:10013C00008008BD0000000024010020C03B000826
:10014C0010B504460E4B18784FF47A73B3FBF0F3EA
:10015C000C4A1068B0FBF3F000F08EF868B90F2C65
:10016C0001D901200AE0002221464FF0FF3000F0B7
:10017C0041F8034B5C60002000E0012010BD00BF83
:10018C0000000020AC00002008B5074A136843F0BB
:10019C0010031360032000F01BF80020FFF7D0FFC2
:1001AC0003F058FA002008BD00200240034A1168F1
:1001BC00034B1B780B441360704700BFB003002047
:1001CC0000000020014B1868704700BFB0030020EE
:1001DC00074AD36823F4E0631B041B0C000200F4F1
:1001EC00E060184340F0BF6040F40030D0607047CE
:1001FC0000ED00E030B4174BDB68C3F30223C3F10E
:10020C000704042C28BF04241D1D062D18D9033BFC
:10021C004FF0FF3505FA04F421EA0401994005FA80
:10022C0003F322EA0303194300280BDB0901C9B2CB
:10023C0000F1604000F5614080F8001330BC70475D
:10024C000023E5E700F00F000901C9B2024B195475
:10025C00F4E700BF00ED00E014ED00E0002807DB40
:10026C0000F01F02400901239340024A42F820305B
:10027C00704700BF00E100E00138B0F1807F0AD286
:10028C00064B5860064AF02182F823100020986033
:10029C0007221A6070470120704700BF10E000E091
:1002AC0000ED00E00A4B1B6913F0800F0DD0084BDA
:1002BC00084A5A6002F188325A601B6913F0800FA9
:1002CC0001D001207047002070470020704700BF0C
:1002DC000020024023016745F0B482B0002632466C
:1002EC00A2E0002D5AD0012D00D1CE68FF2B69D889
:1002FC008446FF2B69D89500DCF800400F27AF40EF
:10030C0024EA070406FA05F52C43CCF800404C68A7
:10031C0014F0805F00F087805F4CA56945F0010503
:10032C00A561A46904F001040194019C9508AF1C1B
:10033C005A4C54F8274002F00307BF004FF00F0C43
:10034C000CFA07FC24EA0C0C554CA04243D004F5E3
:10035C008064A04200F0818004F58064A0427ED0CD
:10036C0004F58064A04234D0042435E04D4FBD42E6
:10037C0014D00BD94C4FBD4210D007F58037BD427D
:10038C000CD0A7F58017BD42B0D107E0A7F58017B8
:10039C00BD4203D007F58037BD42A7D18D687DB132
:1003AC00012D08D044610826A0E7CE6808369DE7E9
:1003BC00CE680C369AE70461082697E7002695E785
:1003CC00042693E700F1040C93E7A2F10805AD00B5
:1003DC0092E7032400E00024BC4044EA0C040235FC
:1003EC002E4F47F825404C6814F4803F39D02F4DE0
:1003FC002C681C432C604C6814F4003F37D02B4DF8
:10040C006C681C436C604C6814F4801F35D0274D0D
:10041C00AC681C43AC604C6814F4001F33D0234D03
:10042C00EC682343EB6001320B6833FA02F430D0F2
:10043C000124944023409C42F5D14D68122DB7D035
:10044C0094D8022DB1D07FF64CAF032DB6D0112D20
:10045C007FF44CAFCE68043648E70124BCE7022495
:10046C00BAE7124D2C6824EA03042C60C3E70F4D45
:10047C006C6824EA03046C60C5E70C4DAC6824EA94
:10048C000304AC60C7E7094DEC6824EA0303EB6096
:10049C00C9E702B0F0BC70470010024000000140F8
:1004AC000008014000002110000031100004014040
:1004BC00002268E0032600E0002606FA04F4AC42B1
:1004CC003FD0FF2B55D88446FF2B55D89700DCF82E
:1004DC0000400F26BE4024EA06040425BD402C43F0
:1004EC00CCF80040C46824EA0303C360013231FA3B
:1004FC0002F345D0012393400B40F7D04FEA920C06
:10050C000CF10205254C54F8255002F00304A4000C
:10051C000F2606FA04F73D40214EB042CCD006F52A
:10052C008066B04209D006F58066B04207D006F569
:10053C008066B042BED00426BFE70126BDE7022686
:10054C00BBE7164D0CF1020455F8246026EA0706A9
:10055C0045F82460134C2668DD432E4026606668FF
:10056C002E406660A6682E40A660E6683540E560C1
:10057C00A7E700F1040CA7E7A2F10805AF00A6E776
:10058C00F0BC7047013231FA02F305D001239340DD
:10059C000B40F7D0F0B4B1E7704700BF000001404A
:1005AC0000080140000401408368194201D1002079
:1005BC0070470120704712B909040161704701614D
:1005CC007047F0B587B0002873D0044690F82932F4
:1005DC00D3B1032384F82932206800F0F6FF2546B6
:1005EC0055F8107B6E460FCD0FC62B683360231D5C
:1005FC000ECB384600F0DAFF58B1022384F82932CA
:10060C000125284607B0F0BD80F8283203F0B2F877
:10061C00DFE70021206800F0E2FF002311E004EB8B
:10062C004312012182F8291082F82830D386002148
:10063C0082F82B109163D1639A1C5201A1500133A3
:10064C00DBB260688342EAD3002312E004EB43116F
:10065C00002281F8292181F8283181F82B21C1F859
:10066C003821C1F83C2103F10A01490162500133E0
:10067C00DBB29842EAD8254655F8107B6E460FCD72
:10068C000FC62B683360231D0ECB384600F0A9FF34
:10069C00054620B1022384F829320125B1E7002355
:1006AC0084F82430012384F82932206801F0CFFA31
:1006BC00A7E70125A5E790F82832012B10D010B53B
:1006CC000446012180F8281203F05FF9206801F03C
:1006DC00BCFA206800F071FF002084F8280210BDDD
:1006EC000220704790F82832012B0DD010B504462B
:1006FC00012380F8283280F82410006801F09FFA5A
:10070C00002084F8280210BD0220704770B511F04B
:10071C00800F23D101F007056D0105F59474044495
:10072C000544002685F8296101F00701217022613A
:10073C00E370627802B1E181022B1AD090F8283272
:10074C00012B19D00546012380F828322146006878
:10075C0000F061FF002085F8280270BD01F007054C
:10076C006D0105F1280404440544012685F829602F
:10077C00DAE700232371E1E70220EEE710B511F070
:10078C00800F1CD101F007035B0103F59472024446
:10079C000344002483F8294101F00703137090F8F7
:1007AC002832012B16D00446012380F8283211463A
:1007BC00006801F0E4F8002084F8280210BD01F074
:1007CC0007035B0103F1280202440344012483F86C
:1007DC002940E1E70220F1E770B501F007056C0153
:1007EC0004F5947101440444C4F83C2105F10A0257
:1007FC005201861883500023736084F8293184F8E1
:10080C00285125B1006801F03EFA002070BD006847
:10081C0001F039FAF9E701F007010A3100EB411157
:10082C004868704770B501F007056C0104F12801A8
:10083C0001440444E263AA1C52018618835000232D
:10084C007360012384F8293084F8285025B100689E
:10085C0001F019FA002070BD006801F014FAF9E7F4
:10086C00F8B504462068B0F8443013F4004F00F09B
:10087C00AD81B0F844309BB213F00F0540F0CD8041
:10088C0013F0100F58D003889BB213F4006F40F094
:10089C00898013F4004FE5D0038823F070031B0507
:1008AC001B0D43F0800303802068B0F8503094F89F
:1008BC00282103EBC203063300EB4303B3F80034E7
:1008CC00C3F30903C4F844318BB1D4F83C1171B1B2
:1008DC00B4F82E2101F067FBD4F84421D4F83C3154
:1008EC001344C4F83C310021204602F06BFF23680E
:1008FC00B3F850201344D4F83821002A74D1B3F83B
:10090C000C2492B222F4F84292B2A3F80C24B3F85D
:10091C000C2442F40042A3F80C24226813889BB2E6
:10092C0023F4804323F0700383F4405343F40043D7
:10093C0043F08003138095E703889BB223F4E143D3
:10094C0023F070036FEA43436FEA53439BB2038077
:10095C002268B2F8503094F8281003EBC10302332C
:10096C0002EB4303B3F80034C3F309036364E26B93
:10097C001344E3630021204602F02EFF94F8243048
:10098C00002B3FF46FAF236C002B7FF46BAF94F80C
:10099C002430226843F08003A2F84C30002384F802
:1009AC0024305FE7B0F8503094F8282103EBC203F1
:1009BC00063300EB4303B3F80034C3F30903C4F864
:1009CC004431B4F82E2104F50C7101F0ECFA2268D4
:1009DC00138823F070031B051B0D43F08003138059
:1009EC00204602F0E7FE3DE73E2A09D8510812F0F6
:1009FC00010F00D00131890289B2A3F80C148CE7E5
:100A0C00510912F01F0F00D101396FEAC1626FEA70
:100A1C00524292B2A3F80C247FE730F82560B6B2AC
:100A2C0016F4004F33D116F0800F3FF41BAF226841
:100A3C0032F825309BB223F4E14323F070036FEAC4
:100A4C0043436FEA53439BB222F825302268B2F835
:100A5C00503004EB451090F8281003EBC10302331F
:100A6C0002EB4303B3F80024C2F30902AB1C5B0195
:100A7C00E1184A60C16B0A44C263E358002B40F092
:100A8C009D8090F82810204602F0A6FEEAE630F889
:100A9C00253023F070031B051B0D43F0800320F859
:100AAC00253004EB451393F83431D3B92068B0F8F2
:100ABC00503004EB451292F8282103EBC2030633A5
:100ACC0000EB4303B3F80074C7F309078FB304EBCF
:100ADC0045113B46B1F82E21D1F83C1101F063FAD7
:100AEC0027E0206804EB451393F8282130F82230D6
:100AFC0013F4804F43D0B0F8503003EBC2030233F1
:100B0C0000EB4303B3F80074C7F309076FBB22680B
:100B1C0004EB451393F8281132F821309BB223F4DF
:100B2C00E04323F0700343F4004343F0C00322F886
:100B3C00213005F10A035B01E1184A683A444A6026
:100B4C0004EB4511D1F83C213A44C1F83C21E3585F
:100B5C001BB1D1F838118F4228D204EB451393F80E
:100B6C002811204602F02EFE5DE704EB45113B46B2
:100B7C00B1F83021D1F83C1101F015FAC7E7B0F803
:100B8C00503003EBC203063300EB4303B3F800749D
:100B9C00C7F30907002FBAD004EB45113B46B1F857
:100BAC003221D1F83C1101F0FEF9B0E704EB45110C
:100BBC0091F828112046FFF70FFE34E704EB45159A
:100BCC0095F828102046FFF72DFE4BE60020F8BDC7
:100BDC0010B50446006801F03CF810F4004F45D104
:100BEC00206801F036F810F4806F43D1206801F0D2
:100BFC0030F810F4804F08D02268B2F844309BB221
:100C0C0023F480439BB2A2F84430206801F021F811
:100C1C0010F4005F08D02268B2F844309BB223F481
:100C2C0000539BB2A2F84430206801F012F810F483
:100C3C00805F30D1206801F00CF810F4006F49D1BE
:100C4C00206801F006F810F4007F6DD1206801F0E7
:100C5C0000F810F4807F08D02268B2F844309BB2C0
:100C6C0023F480739BB2A2F8443010BD2046FFF7EA
:100C7C00F7FDB5E72268B2F844309BB223F48063E9
:100C8C009BB2A2F84430204602F0B5FD002120466C
:100C9C00FFF728FDAAE72268B2F840309BB223F098
:100CAC0004039BB2A2F840302268B2F840309BB2E9
:100CBC0023F008039BB2A2F84030204602F0BCFDA2
:100CCC002268B2F844309BB223F480539BB2A2F852
:100CDC004430AFE72268B2F8403043F00803A2F882
:100CEC0040302268B2F844309BB223F400639BB2CC
:100CFC00A2F844302268B2F8403043F00403A2F862
:100D0C004030206800F0A5FF10F4805F08D0226806
:100D1C00B2F844309BB223F480539BB2A2F8443017
:100D2C00204602F079FD8BE72268B2F844309BB282
:100D3C0023F400739BB2A2F84430204602F055FD18
:100D4C0084E738B501F0070543689D422CD811F0B3
:100D5C00800F1AD14B0103F5947101440344002216
:100D6C0083F8292101238B700D7090F82832012B08
:100D7C001CD00446012380F82832006800F0E9FEFC
:100D8C0065B1002084F828020FE06B0103F1280103
:100D9C0001440344012283F82920E3E704F50C7194
:100DAC00206800F059FFECE7012038BD0220FCE779
:100DBC0001F00F0243689A422DD810B511F0800F44
:100DCC001ED101F007035B0103F594720244034446
:100DDC00002483F829410023937001F0070313705A
:100DEC0090F82832012B18D00446012380F82832C1
:100DFC001146006800F0D2FE002084F8280210BDD5
:100E0C0001F007035B0103F12802024403440124AF
:100E1C0083F82940DFE7012070470220EFE790F8C4
:100E2C002832012B14D010B50446012380F8283247
:100E3C0011F0800F06D1006800F0EBFB002084F865
:100E4C00280210BD01F00701006800F0E0FBF5E797
:100E5C000220704711F0800F0CD001F007014901FE
:100E6C00283101445AB101220A730B811B0C4B81AE
:100E7C0000207047490101F594710144F2E70A73AF
:100E8C00CB80F5E782B0084B1B68084AA2FB032312
:100E9C005B0A00FB03F0019000BF019B5A1E0192FC
:100EAC00002BF9D102B07047AC000020D34D62107A
:100EBC00002800F0F58170B582B00446036813F089
:100ECC00010F2CD0AB4B5B6803F00C03042B1DD033
:100EDC00A84B5B6803F00C03082B12D06368B3F5C6
:100EEC00803F41D0002B55D103F1804303F50433EF
:100EFC001A6822F480321A601A6822F480221A606E
:100F0C0037E09C4B5B6813F4803FE7D0994B1B6830
:100F1C0013F4003F03D06368002B00F0C3812368F7
:100F2C0013F0020F76D0934B5B6813F00C0F5FD06D
:100F3C00904B5B6803F00C03082B54D02369002BF7
:100F4C0000F08A808C4B01221A60FFF73BF90546B2
:100F5C00884B1B6813F0020F75D1FFF733F9401B58
:100F6C000228F5D90320A0E1824A136843F48033A8
:100F7C001360636843B3FFF725F905467D4B1B6887
:100F8C0013F4003FCBD1FFF71DF9401B6428F5D9B2
:100F9C0003208AE1B3F5A02F09D0764B1A6822F40E
:100FAC0080321A601A6822F480221A60E1E703F199
:100FBC008043A3F53C331A6842F480221A601A6805
:100FCC0042F480321A60D4E7FFF7FCF80546694B0F
:100FDC001B6813F4003FA2D0FFF7F4F8401B642801
:100FEC00F5D9032061E1634B5B6813F4803FA5D115
:100FFC00604B1B6813F0020F04D02369012B01D046
:10100C00012052E15B4A136823F0F803616943EA5B
:10101C00C1031360236813F0080F32D0A369002BAF
:10102C005BD0564B01221A60FFF7CCF80546514BAA
:10103C005B6A13F0020F21D1FFF7C4F8401B0228A2
:10104C00F5D9032031E14B4A136823F0F8036169A9
:10105C0043EAC1031360DDE7474B00221A60FFF738
:10106C00B1F80546434B1B6813F0020FD2D0FFF7C3
:10107C00A9F8401B0228F5D9032016E10120FFF73F
:10108C0001FF236813F0040F00F09880394BDB69E3
:10109C0013F0805F33D1374BDA6942F08052DA615A
:1010AC00DB6903F080530193019B0125344B1B68D2
:1010BC0013F4807F25D0E368012B36D0002B4CD164
:1010CC0003F1804303F504331A6A22F001021A6219
:1010DC001A6A22F004021A622CE0284B00221A60D1
:1010EC00FFF770F80546234B5B6A13F0020FC8D06C
:1010FC00FFF768F8401B0228F5D90320D5E000253E
:10110C00D4E71F4A136843F480731360FFF75AF84F
:10111C0006461B4B1B6813F4807FCCD1FFF752F8AB
:10112C00801B6428F5D90320BFE0124A136A43F0F0
:10113C0001031362E3687BB3FFF744F806460D4BDB
:10114C001B6A13F0020F38D1FFF73CF8801B41F2F9
:10115C0088339842F3D90320A7E0052B12D0054B16
:10116C001A6A22F001021A621A6A22F004021A6246
:10117C00E0E700BF001002400000424280044242FF
:10118C00007000404C4B1A6A42F004021A621A6A50
:10119C0042F001021A62CDE7FFF714F80646464BFF
:1011AC001B6A13F0020F08D0FFF70CF8801B41F2FA
:1011BC0088339842F3D9032077E0E5B9E369002B33
:1011CC0072D03D4A526802F00C02082A56D0022B0B
:1011DC0017D03A4B00221A60FEF7F4FF0446364B48
:1011EC001B6813F0007F47D0FEF7ECFF001B0228B2
:1011FC00F5D9032059E0304AD36923F08053D361E9
:10120C00DCE72E4B00221A60FEF7DCFF05462A4B6A
:10121C001B6813F0007F06D0FEF7D4FF401B02289A
:10122C00F5D9032041E0236AB3F5803F1AD0224957
:10123C004B6823F47413226A606A024313434B60B5
:10124C001E4B01221A60FEF7BDFF04461A4B1B68A9
:10125C0013F0007F0ED1FEF7B5FF001B0228F5D965
:10126C00032022E0144A536823F40033A1680B4393
:10127C005360DCE7002018E0002016E0012B16D0AC
:10128C000D4B5B6803F48031226A914201D001203E
:10129C000BE003F47013626A93420AD0012004E05D
:1012AC0001207047012000E0002002B070BD012039
:1012BC00FBE70020F9E700BF00100240600042424B
:1012CC0010B487B0164C94E80F000DF1180C0CE913
:1012DC000F00238AADF80430124B5B6803F00C024C
:1012EC00082A1AD1C3F38342624412F8102C13F467
:1012FC00803F05D10C4800FB02F007B010BC7047D2
:10130C00084B5B68C3F34043634413F8143C074831
:10131C0000FB02F0B0FBF3F0EFE70448EDE700BF91
:10132C00D83B00080010024000093D0000127A0072
:10133C00002800F0A38070B50446524B1B6803F0E4
:10134C0007038B420CD24F4A136823F007030B435D
:10135C001360136803F007038B4201D0012070BDAA
:10136C00236813F0020F17D013F0040F04D0464A71
:10137C00536843F4E0635360236813F0080F04D000
:10138C00414A536843F4605353603F4A536823F017
:10139C00F003A068034353600D46236813F0010F5C
:1013AC0031D06368012B20D0022B25D0364A12682D
:1013BC0012F0020F64D034494A6822F0030213433E
:1013CC004B60FEF7FFFE06462F4B5B6803F00C03E9
:1013DC006268B3EB820F16D0FEF7F4FE801B41F26D
:1013EC0088339842F0D90320B9E7274A126812F4DF
:1013FC00003FE0D10120B2E7234A126812F0007FCF
:10140C00D9D10120ABE71F4B1B6803F00703AB429C
:10141C000CD91C4A136823F007032B431360136881
:10142C0003F00703AB4201D0012098E7236813F0C7
:10143C00040F06D0144A536823F4E063E1680B43AD
:10144C005360236813F0080F07D00F4A536823F436
:10145C006053216943EAC1035360FFF731FF0A4B24
:10146C005B68C3F30313094AD35CD840084B18607C
:10147C00084B1868FEF764FE002070E701207047E7
:10148C0001206CE70020024000100240043C0008E0
:10149C00AC0000200400002070B582B00446036844
:1014AC0013F0010F34D03E4BDB6913F0805F48D151
:1014BC003B4BDA6942F08052DA61DB6903F080530E
:1014CC000193019B0125374B1B6813F4807F3AD0A5
:1014DC00334B1B6A13F4407311D0626802F44072F0
:1014EC009A420CD02E4A136A23F440702E490126DE
:1014FC000E6000260E60106213F0010F37D1284ADF
:10150C00136A23F4407361680B431362002D3FD1BF
:10151C00236813F0020F06D0214A536823F440438A
:10152C00A1680B435360236813F0100F35D01C4A8D
:10153C00536823F48003E1680B435360002002B02E
:10154C0070BD0025BFE7174A136843F4807313601E
:10155C00FEF738FE0646134B1B6813F4807FB7D199
:10156C00FEF730FE801B6428F5D90320E7E7FEF771
:10157C0029FE06460A4B1B6A13F0020FBFD1FEF779
:10158C0021FE801B41F288339842F3D90320D6E721
:10159C00D36923F08053D361BAE70020CFE700BFB3
:1015AC0000100240007000404004424284B001A888
:1015BC0080E80E00002004B07047B0F8403043F4CF
:1015CC003F43A0F8403000207047B0F8403023F47F
:1015DC007C535B045B0CA0F840300020704700206B
:1015EC00704784B038B505AC84E80E000123A0F830
:1015FC0040300024A0F84040A0F84440A0F85040EF
:10160C00FFF7DBFF2046BDE8384004B070470020F0
:10161C0070470020704730B403460C7830F8242013
:10162C0092B222F4EC4222F0700292B2C8780328F3
:10163C005AD8DFE800F04D550251002048F28005E1
:10164C002A4323F824200C7833F8242092B222F475
:10165C00E04222F0700222432A4323F824200A7B22
:10166C00002A40F0B1804A78002A4ED0B3F85020BE
:10167C001A440C7802EB0412CC8864086400A2F8BB
:10168C0000440C7833F8242012F0400F0CD033F8BF
:10169C00242092B222F4E04222F0700242F4004282
:1016AC0042F0C00223F82420CA78012A1ED00978FF
:1016BC0033F8212092B222F4E04222F0400282F070
:1016CC00200242F4004242F0800223F8212060E024
:1016DC0042F400720020B1E742F4C0620020ADE792
:1016EC0042F480620020A9E70120A7E7097833F8CB
:1016FC00212092B222F4E04222F0400242F4004255
:10170C0042F0800223F8212043E0B3F850201A4421
:10171C000C7802EB0412CC8864086400A2F808442C
:10172C00B3F850201A440C7802EB04120C6994BBE9
:10173C00B2F80C44A4B224F4F844A4B2A2F80C44B9
:10174C00B2F80C4444F40044A2F80C440C7833F87E
:10175C00242012F4804F0CD033F8242092B222F4BF
:10176C00E04222F0700242F4404242F0800223F840
:10177C002420097833F8212092B222F4804222F0FE
:10178C00700282F4405242F4004242F0800223F88C
:10179C00212030BC70473E2C09D8650814F0010F8D
:1017AC0000D00135AD02ADB2A2F80C54CEE76509FC
:1017BC0014F01F0F00D1013D6FEAC5646FEA544469
:1017CC00A4B2A2F80C44C1E70C7833F8242092B2EE
:1017DC0022F4E04222F0700242F4014242F0800214
:1017EC0023F82420B3F850201A440C7802EB04128E
:1017FC000C8964086400A2F80044B3F850201A4421
:10180C000C7802EB04124C8964086400A2F80844BA
:10181C004A78002A4ED10C7833F8242012F4804FE9
:10182C000CD033F8242092B222F4E04222F0700261
:10183C0042F4404242F0800223F824200C7833F822
:10184C00242012F0400F0CD033F8242092B222F452
:10185C00E04222F0700242F4004242F0C00223F84F
:10186C0024200C7833F8242092B222F4E04222F0A7
:10187C00700242F4004242F0C00223F824200D789A
:10188C0033F8252092B222F4804222F0700282F4C6
:10189C00405248F28004224323F82520097833F87B
:1018AC00212092B222F4E04222F04002224323F89B
:1018BC0021206EE70C7833F8242012F4804F0CD0E2
:1018CC0033F8242092B222F4E04222F0700242F467
:1018DC00404242F0800223F824200C7833F8242074
:1018EC0012F0400F0CD033F8242092B222F4E042D4
:1018FC0022F0700242F4004242F0C00223F824208D
:10190C000C7833F8242092B222F4E04222F07002D8
:10191C0042F4404242F0800223F82420CA78012A83
:10192C001ED00C7833F8242092B222F4E04222F03C
:10193C00400282F0200242F4004242F0800223F87E
:10194C002420097833F8212092B222F4804222F02C
:10195C00700242F4004242F0800223F8212018E782
:10196C000C7833F8242092B222F4E04222F04002A8
:10197C0042F4004242F0800223F82420E1E70B7B82
:10198C00002B46D14B7813B30A7830F8223013F081
:10199C00400F0CD030F822309BB223F4E04323F0FC
:1019AC00700343F4004343F0C00320F822300A785C
:1019BC0030F822309BB223F4E04323F0400343F48D
:1019CC00004343F0800320F82230002070470A784F
:1019DC0030F8223013F4804F0CD030F822309BB208
:1019EC0023F4E04323F0700343F4404343F08003BB
:1019FC0020F822300A7830F822309BB223F480434E
:101A0C0023F0700343F4004343F0800320F82230AA
:101A1C00DBE710B44B78002B4ED10A7830F822302B
:101A2C0013F4804F0CD030F822309BB223F4E043F7
:101A3C0023F0700343F4404343F0800320F822303A
:101A4C000A7830F8223013F0400F0CD030F82230E6
:101A5C009BB223F4E04323F0700343F4004343F0C0
:101A6C00C00320F822300A7830F822309BB223F4DD
:101A7C00E04323F0700343F4004343F0C00320F829
:101A8C0022300B7830F8232092B222F4804222F0DC
:101A9C00700248F28004224320F823200A7830F8A0
:101AAC0022309BB223F4E04323F04003234320F87D
:101ABC002230002010BC70470A7830F8223013F422
:101ACC00804F0CD030F822309BB223F4E04323F04B
:101ADC00700343F4404343F0800320F822300A782B
:101AEC0030F8223013F0400F0CD030F822309BB27B
:101AFC0023F4E04323F0700343F4004343F0C003AA
:101B0C0020F822300A7830F822309BB223F4E043DC
:101B1C0023F0700343F4404343F0800320F8223059
:101B2C000B7830F8232092B222F4E04222F04002EB
:101B3C0048F28004224320F823200A7830F822301F
:101B4C009BB223F4804323F07003234320F822300C
:101B5C00AFE74B788BB90A7830F822309BB223F47C
:101B6C00804323F0700383F4805343F4004343F029
:101B7C00800320F82230002070470A7830F8223099
:101B8C009BB223F4E04323F0400383F0100343F4AF
:101B9C00004343F0800320F82230ECE70B7B002B52
:101BAC004BD14B7833B30A7830F8223013F0400F16
:101BBC000CD030F822309BB223F4E04323F07003B6
:101BCC0043F4004343F0C00320F82230CB78012BC0
:101BDC0033D00A7830F822309BB223F4E04323F060
:101BEC00400383F0200343F4004343F0800320F8C8
:101BFC00223022E00A7830F8223013F4804F0CD0D7
:101C0C0030F822309BB223F4E04323F0700343F40A
:101C1C00404343F0800320F822300A7830F8223019
:101C2C009BB223F4804323F0700383F4405343F4BA
:101C3C00004343F0800320F822300020704711B994
:101C4C008023A0F84C300020704700207047002003
:101C5C007047B0F8440070470020704701335B08B0
:101C6C0000EB420202F5806263B110B40C78487844
:101C7C0044EA002422F8044B0231013B002BF5D13D
:101C8C0010BC7047704770B54E78012E33D08A69FE
:101C9C000B699A4240F2FC80D21A8A610A7B002AB4
:101CAC0040F01381B0F8502002440C7802EB04127F
:101CBC00002B40F0F180B2F80C349BB223F4F843C3
:101CCC009BB2A2F80C34B2F80C3443F40043A2F8E3
:101CDC000C340A7830F822309BB223F4804323F082
:101CEC00700383F4405343F4004343F0800320F823
:101CFC002230002070BD8A690B699A4222D9D21A0F
:101D0C008A610C4605460A7B02B30A7830F8221029
:101D1C0011F0400F72D0002E40D1B0F85010014499
:101D2C0001EB02120BBBB2F80C1489B221F4F8418E
:101D3C0089B2A2F80C14B2F80C1441F40041A2F8C8
:101D4C000C1433E000238B611346DAE79EB2334662
:101D5C00CA884969FFF782FFB5F850302B442278C6
:101D6C0003EB0213A3F8046437E03E2B09D859089F
:101D7C0013F0010F00D00131890289B2A2F80C14C2
:101D8C0014E0590913F01F0F00D101396FEAC1613A
:101D9C006FEA514189B2A2F80C1407E0B0F8501068
:101DAC00014401EB021299B2A2F80C1462899BB2A5
:101DBC0061692846FFF752FF6378002B57D12278D0
:101DCC0035F822309BB223F4E04323F0700343F444
:101DDC00004343F0C00325F82230227835F8223036
:101DEC009BB223F4E04323F0400383F0300343F42D
:101DFC00004343F0800325F822307AE76EBBB0F83D
:101E0C005010014401EB021273B9B2F8041489B2F8
:101E1C0021F4F84189B2A2F80414B2F8041441F484
:101E2C000041A2F8041420E03E2B09D8590813F005
:101E3C00010F00D00131890289B2A2F8041414E018
:101E4C00590913F01F0F00D101396FEAC1616FEA14
:101E5C00514189B2A2F8041407E0B0F850100144C3
:101E6C0001EB021299B2A2F8041422899FE7012B0C
:101E7C00B3D1227835F822309BB223F4E04323F01F
:101E8C00700343F4404343F0800325F82230A4E769
:101E9C0000238B61134601E73E2B09D85C0813F035
:101EAC00010F00D00134A402A4B2A2F80C4410E734
:101EBC005C0913F01F0F00D1013C6FEAC4646FEA98
:101ECC005444A4B2A2F80C4403E7A6B9B0F85020CD
:101EDC0002440C7802EB041233BBB2F80444A4B2F3
:101EEC0024F4F844A4B2A2F80444B2F8044444F430
:101EFC000044A2F804444A78002A47D1B0F8502094
:101F0C0002440C7802EB04123BBBB2F80C349BB2CB
:101F1C0023F4F8439BB2A2F80C34B2F80C3443F41B
:101F2C000043A2F80C34D4E63E2B09D85C0813F01D
:101F3C00010F00D00134A402A4B2A2F80444DAE7E1
:101F4C005C0913F01F0F00D1013C6FEAC4646FEA07
:101F5C005444A4B2A2F80444CDE73E2B09D85C0843
:101F6C0013F0010F00D00134A402A4B2A2F80C4467
:101F7C00AFE65C0913F01F0F00D1013C6FEAC4639C
:101F8C006FEA53439BB2A2F80C34A2E6012A7FF409
:101F9C00A0AEB0F8502002440C7802EB04129BB2B5
:101FAC00A2F80C3495E630B45D0800EB420202F561
:101FBC00806207E032F8044BA4B20C70240A4C7017
:101FCC000231013D002DF5D113F0010F01D0138822
:101FDC000B7030BC70470000202303800048704712
:101FEC0008000020202303800048704728000020B0
:101FFC002023038000487047480000200A230380F8
:10200C00004870476800002038B50446037CE3B9EB
:10201C004FF400730222012101F056FC0125C4F893
:10202C006C514FF4007302228121204601F04CFCCC
:10203C00E5624FF41B7001F0A3FCC4F8B802A0B128
:10204C00204600F03EF9002038BD40230222012139
:10205C0001F03AFC0125C4F86C5140230222812185
:10206C00204601F031FCE562E3E70220ECE738B5ED
:10207C000446012101F033FC0025C4F86C51812188
:10208C00204601F02CFCE562204600F046F9D4F81D
:10209C00B80218B101F078FCC4F8B852002038BD71
:1020AC0070B582B005460C46D0F8B8620023ADF886
:1020BC0006300B7813F0600236D0202A40F0B48042
:1020CC004A78FE2A05D0FF2A1DD000F0B6FE022069
:1020DC00ADE04A888AB9CA88012A0ED113F0800F64
:1020EC000BD0D0F8BC329B69984730600122314646
:1020FC00284601F0C3F9002099E02146284600F05B
:10210C009CFE022093E04A8842B9CA8832B913F087
:10211C00800F03D100F0F4F8002088E02146284617
:10212C0000F08BFE022082E04B780B2B78D8DFE896
:10213C0003F0062F7777777777777777152390F8F3
:10214C009C32032B06D102220DF1060101F096F907
:10215C0000206CE000F071FE022068E090F89C32E8
:10216C00032B05D10122311D01F088F900205EE01E
:10217C0000F063FE02205AE090F89C32032B03D14E
:10218C008B787360002052E000F057FE02204EE086
:10219C00097901F0ACFB2179284601F0A0FBA3885A
:1021AC0013F0800F1AD103F00F0303EB83039A0093
:1021BC002A440023C2F858312B7C53BB4FF40073D4
:1021CC0002220121284601F07FFB0123C5F86C3166
:1021DC002179284600F04BF9002028E003F00F038A
:1021EC0003EB83039A002A44002393612B7C4BB9A5
:1021FC004FF4007302228121284601F065FB012374
:10220C00EB62E5E7402302228121284601F05CFBCA
:10221C00F5E7402302220121284601F055FBD4E7C3
:10222C0000F00BFE022002E000F007FE022002B0DC
:10223C0070BD08B500F092F8002008BD08B500F09C
:10224C00FDF8002008BD09B1C0F8BC120020704791
:10225C0070B51346D0F8B842D4F8145216469542CD
:10226C0000D2ABB2D4F83422921BC4F83422002230
:10227C0084F83822042222720A46812101F06AFB7A
:10228C0070BD38B50546D0F8B84294F8183223B969
:10229C00D4F814320BB1637A3BB18121284601F09A
:1022AC002EFB637A022B04D038BD012101F027FBF1
:1022BC00F3E71F2304F503720121284601F052FBBA
:1022CC00F2E738B50446D0F8B8520020287268728C
:1022DC0085F85D0285F85C02D4F8BC321B6898471F
:1022EC000121204601F003FB8121204601F0FFFA79
:1022FC001F2305F503720121204601F033FB38BD85
:10230C0008B5D0F8B82200231372012151721F2393
:10231C0002F5037201F026FB08BDD0F8B83200229A
:10232C001A72704738B50546D0F8B8420A4BC4F853
:10233C002C3284F83812002323720D2304F50B720F
:10234C00812101F007FB1F2304F5037201212846AC
:10235C0001F008FB38BD00BF5553425310B504467D
:10236C00D0F8B8120B7A022B06D004D3042B02D867
:10237C000021FFF7D7FF10BD01F21B2291F81912B3
:10238C0000F065FB0028F6DA01212046FFF7CAFFB2
:10239C00F1E7000038B50546D0F8B842D4F8103251
:1023AC00C4F83032D4F81432C4F83432012101F0BC
:1023BC00E1FA1F2804D1D4F80C221F4B9A420CD0FE
:1023CC002023052294F81912284600F0F1F8022374
:1023DC0063722846FFF755FF38BD94F8191201298E
:1023EC00EED894F81A32002BEAD0102BE8D804F26D
:1023FC001B22284600F02BFB00280BDB237A013B29
:10240C00DBB2022BE8D9628982B900212846FFF79A
:10241C0089FFE1E7237A052B03D02846FFF731FF2C
:10242C00DAE701212846FFF77DFFD5E704F10C011F
:10243C002846FFF70DFFCFE75553424310B504462E
:10244C00D0F8B8321A7A12B1012A03D010BDFFF7B6
:10245C00A1FFFBE703F21B2293F8191200F0F7FA25
:10246C000028F3DA01212046FFF75CFFEEE710B5F8
:10247C00D0F8B842637A022B03D011F0800F06D14A
:10248C0010BD812101F03BFA00236372F8E7012BA8
:10249C00F6D00121FFF746FFF2E7000010B4D0F8A8
:1024AC00B842537813F0010F0DD00723638105E078
:1024BC00013B9BB20F4AD15CE2181173002BF7D190
:1024CC00002010BC7047D0F8BC32D86901EBC101B8
:1024DC008B0018440179053113798B4200D90B46D6
:1024EC00638104E0013B9BB2C15CE2181173002BC9
:1024FC00F8D1E5E7FC3B0008D0F8B802082343818B
:10250C0005E0013B9BB2044AD15CC2181173002B4D
:10251C00F7D10020704700BFF43B0008D0F8B80298
:10252C000823438105E0013B9BB2044AD15CC218ED
:10253C001173002BF7D10020704700BFEC3B000853
:10254C0010B4D0F8B842002304E0E118002008735E
:10255C000133DBB2112BF8D9702323730C23E374F2
:10256C0094F85C3294F85D128B420FD003F1470162
:10257C0004EBC1010879A073487A2076097A617658
:10258C000133DBB284F85C32042B08D01223638154
:10259C001379122B00D86381002010BC70470023E4
:1025AC0084F85C32F2E7D0F8B832002058817047DA
:1025BC00D0F8B80290F85D3203F1470100EBC1018D
:1025CC000A7100220A720133DBB280F85D32042BEF
:1025DC0000D0704780F85D22FBE770B50446D0F858
:1025EC00B852D5F814325BB90E46D0F8BC329B68A1
:1025FC0008469847034660B900226A81184670BDA8
:10260C002023052295F81912FFF7D2FF4FF0FF3364
:10261C00F4E73A23022231462046FFF7C9FF05238F
:10262C002B724FF0FF33E9E770B582B005460E46CA
:10263C00D0F8B842002304E0E218002111730133F2
:10264C009BB20B2BF8D9D5F8BC325B680DF10602A6
:10265C006946304698470146D8B90823E373009A77
:10266C00531E180E2074C3F307406074C3F3072382
:10267C00A374013AE27402232375BDF806300022DC
:10268C0062751A0AA275E3750C236381084602B0C1
:10269C0070BD3A23022231462846FFF789FF4FF0DE
:1026AC00FF31F3E770B505460E46D0F8B842D0F8C6
:1026BC00BC325B6804F25E2204F518713046984710
:1026CC00C8B90146D4F86022531E180E2073C3F308
:1026DC0007406073C3F30723A373013AE273B4F8A2
:1026EC005E320022227462741A0AA274E374082304
:1026FC006381084670BD3A23022231462846FFF713
:10270C0057FF4FF0FF31F4E710B5D0F8B84213443F
:10271C00D4F86042A34201D8002010BD2123052229
:10272C00FFF746FF4FF0FF30F7E72DE9F843064679
:10273C008946D0F8B842D4F86852B4F85E3203FB3C
:10274C0005F5B5F5007F28BF4FF40075D0F8BC2215
:10275C00176904F10C08B5FBF3F39BB2D4F86422AF
:10276C0041464846B84700281EDBABB242468121A1
:10277C00304601F0EFF8B4F85E32B5FBF3F2D4F862
:10278C0064321344C4F86432D4F868329B1AC4F827
:10279C006832D4F83422551BC4F834526BB9032375
:1027AC0023720020BDE8F8831123042249463046E9
:1027BC00FFF7FEFE4FF0FF30F4E70020F2E7F8B52C
:1027CC0006460F46D0F8B842237A73BB154694F9E7
:1027DC001832002B31DAD0F8BC329B680846984787
:1027EC00A0BBAB78EA78120442EA03622B7942EA86
:1027FC0003226B791A43C4F86422E9792B7A43EAF1
:10280C000123C4F8683239463046FFF77DFF0028B3
:10281C002FDB02232372D4F81422D4F86812B4F8F4
:10282C005E3203FB01F39A4219D14FF400736381BA
:10283C0039463046FFF779FFF8BD2023052294F87E
:10284C001912FFF7B5FE4FF0FF30F5E73A230222DD
:10285C0039463046FFF7ACFE4FF0FF30ECE7202353
:10286C00052294F819123046FFF7A2FE4FF0FF3004
:10287C00E2E74FF0FF30DFE72DE9F84306468846E4
:10288C00D0F8B842D4F86852B4F85E3203FB05F5C0
:10289C00B5F5007F28BF4FF40075D0F8BC22D2F8F4
:1028AC00149004F10C07B5FBF3F39BB2D4F864223B
:1028BC0039464046C847002823DBB4F85E02B5FB16
:1028CC00F0F1D4F864220A44C4F86422D4F86832D3
:1028DC005B1AC4F86832D4F83422551BC4F834524D
:1028EC00C3B103FB00F3B3F5007F28BF4FF40073B3
:1028FC009BB23A460121304601F034F80020BDE885
:10290C00F8830323042241463046FFF751FE4FF073
:10291C00FF30F4E700213046FFF704FD0020EEE71E
:10292C002DE9F04105460F46D0F8B842237A002B2A
:10293C006AD1164694F91832002B40DBD0F8BC3221
:10294C009B6808469847002842D1D5F8BC32DB6812
:10295C00384698478046002843D1B378F278120461
:10296C0042EA0362337942EA032273791A43C4F8C8
:10297C006422F179337A43EA0123C4F86832394688
:10298C002846FFF7C1FE002842DBD4F86822B4F8D1
:10299C005E3203FB02F3D4F814229A422AD1B3F527
:1029AC00007F28BF4FF40073012121729BB204F108
:1029BC000C02284600F0D6FF4046BDE8F0812023EB
:1029CC00052294F81912FFF7F3FD4FF0FF38F3E7E7
:1029DC003A23022239462846FFF7EAFD4FF0FF382A
:1029EC00EAE72723022239462846FFF7E1FD4FF09C
:1029FC00FF38E1E72023052294F819122846FFF747
:102A0C00D7FD4FF0FF38D7E7FFF736FF8046D3E707
:102A1C004FF0FF38D0E710B5D0F8B842537813F028
:102A2C00020F0AD1D4F86832D4F86422FFF76CFE96
:102A3C00002809DB0020608110BD24230522FFF74C
:102A4C00B7FD4FF0FF30F7E74FF0FF30F4E708B574
:102A5C0013785A2B5FD8DFE803F02E5E5E325E5E91
:102A6C005E5E5E5E5E5E5E5E5E5E5E5E365E5E5EA2
:102A7C005E5E5E5E423A5E5E3E5E5E5E5E4A5E4EEE
:102A8C005E5E525E565E5E5E5E5A5E5E5E5E5E5E72
:102A9C005E5E5E5E5E5E5E5E5E5E5E5E5E5E5E5E4A
:102AAC005E5E5E5E5E5E5E5E5E5E5E5E5E5E5E5E3A
:102ABC005E5E5E5E4600FFF790FD002008BDFFF7EE
:102ACC003FFD0020FAE7FFF7E9FC0020F6E7FFF7EF
:102ADC006AFD0020F2E7FFF766FD0020EEE7FFF746
:102AEC000BFD0020EAE7FFF719FD0020E6E7FFF7F2
:102AFC009BFD0020E2E7FFF7D5FD0020DEE7FFF7A6
:102B0C005EFE0020DAE7FFF70BFF0020D6E7FFF7A9
:102B1C0082FF0020D2E720230522FFF749FD4FF06A
:102B2C00FF30CBE798B108B50346D0F8B40210B12A
:102B3C000020C3F8B40209B1C3F8B012184601233F
:102B4C0080F89C32027000F07DFE002008BD02204F
:102B5C00704719B1C0F8B4120020704702207047BA
:102B6C0008B500F0A9FE002008BD08B5D0F8B432B5
:102B7C0033B11B68984708B9002008BD0220FCE758
:102B8C000220FAE708B5D0F8B4325B689847002009
:102B9C0008BD38B5044600F52A75284600F039F909
:102BAC000123C4F89432B4F8AE32C4F8983294F8D5
:102BBC00A81201F01F03012B0ED03BB1022B10D039
:102BCC0001F08001204600F09AFE03E029462046E1
:102BDC0000F0CDFA002038BD2946204600F0FBFA63
:102BEC00F8E72946204600F026FBF3E738B5044603
:102BFC00A1BB1046D4F89432032B03D0052B24D060
:102C0C00002037E0D4F86031D4F8642193420DD918
:102C1C009B1AC4F860319A4206D99AB201462046F2
:102C2C0000F041FC002025E092B2F7E7D4F8B43272
:102C3C001B692BB194F89C22032A01D1204698479A
:102C4C00204600F038FC002014E00025C4F8945213
:102C5C002946204600F053FE28460BE00A46D0F8E1
:102C6C00B4329B693BB190F89C12032905D11146F3
:102C7C009847002038BD0220FCE70220FAE710B587
:102C8C000446002953D11046D4F89432022B0CD0B0
:102C9C00042B00D01BB98021204600F030FE94F8A4
:102CAC00A032012B3FD000204DE0236A626A934290
:102CBC001DD8E169B1FBF2F302FB13132BB98A4265
:102CCC0003D8D4F8983299421FD3D4F8B432DB68C5
:102CDC002BB194F89C22032A01D1204698478021DD
:102CEC00204600F00CFE204600F0F0FBD7E79A1AC5
:102CFC00226292B20146204600F0CDFB00231A4618
:102D0C001946204600F02EFEC9E700221146204647
:102D1C0000F0C1FB0021C4F898120B460A4620466D
:102D2C0000F020FEBBE7002084F8A0020BE00A466E
:102D3C00D0F8B4325B693BB190F89C12032905D1F1
:102D4C0011469847002010BD0220FCE70220FAE74C
:102D5C0070B5044640230022114600F0B5FD012554
:102D6C00C4F858514026C4F86461334600228021CF
:102D7C00204600F0A9FDA561666284F89C520023F0
:102D8C00C4F894326360C4F8A432D4F8B8322BB1CE
:102D9C00D4F8B4325B68002120469847002070BDFF
:102DAC0001740020704790F89C3280F89D32042307
:102DBC0080F89C320020704790F89C32042B01D094
:102DCC000020704790F89D3280F89C32F8E708B5E7
:102DDC0090F89C32032B01D0002008BDD0F8B432FF
:102DEC00DB69002BF8D09847F6E7002302E00133AB
:102DFC00DBB201300278002AF9D11846704708B5C9
:102E0C004B88012B00D008BDC0F8A43200F053FB56
:102E1C00F9E70B7803704B7843708B78CA7803EB27
:102E2C00022343800B794A7903EB022383808B794D
:102E3C00CA7903EB0223C380704710B50446802186
:102E4C0000F05DFD0021204600F059FD10BD30B5AD
:102E5C0083B005460C460023ADF806304A88130AA9
:102E6C00013B062B00F2A480DFE803F004182CA22F
:102E7C00A2869300D0F8B0321B680DF10601007CDD
:102E8C009847BDF806201AB1E388002B40F09480D7
:102E9C00E388002B00F09A8003B030BD037C43B96B
:102EAC00D0F8B4329B6A0DF10600984702234370A8
:102EBC00E7E7D0F8B432DB6A0DF10600984702233D
:102ECC004370DEE7D2B2052A52D8DFE802F00310D5
:102EDC001D2A3744D0F8B0325B6823B10DF10601DE
:102EEC00007C9847CDE72146FFF7A7FFD4E7D0F841
:102EFC00B0329B6823B10DF10601007C9847C0E706
:102F0C002146FFF79AFFC7E7D0F8B032DB6823B150
:102F1C000DF10601007C9847B3E72146FFF78DFFC2
:102F2C00BAE7D0F8B0321B6923B10DF10601007C71
:102F3C009847A6E72146FFF780FFADE7D0F8B032FF
:102F4C005B6923B10DF10601007C984799E7214696
:102F5C00FFF773FFA0E7D0F8B0329B6923B10DF1F6
:102F6C000601007C98478CE72146FFF766FF93E744
:102F7C002146FFF762FF8FE7037C33B9D0F8B432F8
:102F8C005B6B0DF1060098477BE72146FFF755FF79
:102F9C0082E7037C43B9D0F8B4321B6B0DF1060009
:102FAC009847072343706CE72146FFF746FF73E70A
:102FBC002146FFF742FF6FE79A4228BF1A46ADF849
:102FCC0006200146284600F059FA61E7284600F031
:102FDC0072FA61E738B504468B88F3B9CB88E3B94C
:102FEC004B887F2B19D803F07F0590F89C32032B6C
:102FFC000CD080F89E52294600F0A4FC204600F02C
:10300C005AFA35B1022384F89C3209E0FFF715FF18
:10301C0006E0012384F89C3202E02046FFF70DFF06
:10302C0038BD000038B504460D468978284B197018
:10303C0001290ED890F89C32022B0ED0032B21D0F4
:10304C002946FFF7FAFE224B19782046FFF79AFD26
:10305C0002E02946FFF7F1FE38BD81B14160032340
:10306C0080F89C32FFF781FD022803D0204600F047
:10307C0022FAF1E729462046FFF7DFFEECE700F0E5
:10308C001AFAE9E789B1436899421DD0D9B2FFF722
:10309C0079FD0F4B197861602046FFF766FD022819
:1030AC000DD0204600F007FAD6E7022380F89C32B8
:1030BC004160FFF767FD204600F0FDF9CCE729469B
:1030CC002046FFF7BAFEC7E700F0F5F9C4E700BFEA
:1030DC003C01002008B5CB88012B0BD190F89C3219
:1030EC009BB1022B09D9032B0FD10122011D00F03A
:1030FC00C5F901E0FFF7A1FE08BD0146002341F828
:10310C00083F012200F0BAF9F6E7FFF796FEF3E765
:10311C0008B590F89C32013B022B12D8CB88022BBD
:10312C000CD10123C360D0F8A4320BB10323C360CC
:10313C00022200F10C0100F0A1F908BDFFF77DFEA1
:10314C00FBE7FFF77AFEF8E708B590F89C32013BF5
:10315C00022B09D84B88012B00D008BD0023C0F8E6
:10316C00A43200F0A8F9F8E7FFF767FEF5E708B519
:10317C000B7803F06003202B05D0402B03D043B118
:10318C00FFF75BFE03E0D0F8B4329B689847002051
:10319C0008BD4B78092B1BD8DFE803F011171A1464
:1031AC001A08051A0E0BFFF752FEF0E7FFF712FF95
:1031BC00EDE7FFF737FFEAE7FFF78CFFE7E7FFF7ED
:1031CC00A7FFE4E7FFF71BFEE1E7FFF7BDFFDEE734
:1031DC00FFF733FEDBE738B505460C460B7803F0FA
:1031EC006003202B06D0402B04D01BB1FFF725FE2B
:1031FC00002038BD95F89C32013B022B16D8237960
:10320C00012B0ED8D5F8B4329B6821462846984736
:10321C00E388002BECD10028EAD1284600F04BF9CA
:10322C00E6E721462846FFF708FEE1E72146284657
:10323C00FFF703FEDCE738B504468A880B7803F009
:10324C006003202B08D0D0B2402B05D05BB12046B8
:10325C00FFF7F3FD002005E0D4F8B4329B6820465C
:10326C009847002038BD202B05D1D4F8B4329B6888
:10327C0020469847F6E74B78012B32D0002B5ED0D6
:10328C00032B40F0D88094F89C32022B06D0032BF1
:10329C0016D02046FFF7D1FD0020E3E708B18028C7
:1032AC0004D12046FFF7C9FD0020DBE7014620468C
:1032BC0000F025FB8021204600F021FB0020D1E707
:1032CC004B8823B918B1802801D0CB8823B1204674
:1032DC0000F0F1F80020C5E70146204600F00FFB96
:1032EC00F5E794F89C32022B06D0032B16D020461F
:1032FC00FFF7A3FD0020B5E708B1802804D12046D4
:10330C00FFF79BFD0020ADE70146204600F0F7FAE1
:10331C008021204600F0F3FA0020A3E74B88002B15
:10332C0040F08E8010F07F0F04D1204600F0C3F8DF
:10333C00002097E70146204600F0E9FAF5E794F8FB
:10334C009C32022B06D0032B2AD02046FFF775FDAA
:10335C00002087E708B1802813D112F0800F15D117
:10336C0000F07F0000EB8000830003F5A87121447E
:10337C00043100250D600222204600F07FF828461B
:10338C0070E72046FFF759FD00206BE700F07F0047
:10339C0000EB8000830003F1100121440431E8E7C5
:1033AC0052B2002A1FDB00F00F0303EB83039D00D6
:1033BC002544D5F8583123B3002A27DB00F07F02CF
:1033CC0002EB8202930003F5A8752544043508B17D
:1033DC00802825D100232B6002222946204600F0AC
:1033EC004DF800203EE700F00F0303EB83039D0034
:1033FC002544AB69002BDFD12046FFF71EFD0020D2
:10340C0030E72046FFF719FD00202BE700F07F0284
:10341C0002EB8202930003F1100525440435D6E734
:10342C000146204600F07BFA10B101232B60D3E754
:10343C0000232B60D0E72046FFF7FFFC002011E7AC
:10344C0000200FE7C8B170B50D4616460446FFF7CD
:10345C00CCFC013040003080287003236B700223B9
:10346C0007E001345A1CD2B2E9540233DBB200211A
:10347C00A95421780029F4D170BD704710B51346BA
:10348C000222C0F89422C36103620A46002100F0B4
:10349C0061FA002010BD08B513460A46002100F061
:1034AC0059FA002008BD08B513460A46002100F061
:1034BC0059FA002008BD08B50423C0F89432002343
:1034CC001A46194600F046FA002008BD08B5052337
:1034DC00C0F8943200231A46194600F043FA002033
:1034EC0008BD0000F0B589B000240494059406943E
:1034FC000794204B9A6942F010029A619A6902F083
:10350C0010020092009A9A6942F020029A619A691C
:10351C0002F020020192019A9A6942F008029A6123
:10352C009A6902F008020292029A9A6942F0040225
:10353C009A619B6903F004030393039B0E4F22468D
:10354C004FF400513846FDF736F84FF4005304930E
:10355C000125059506940226079604A93846FCF722
:10356C00BBFE04960594069504A90448FCF7B4FE2A
:10357C0009B0F0BD0010024000100140000C0140E9
:10358C0008B5054B1A68043B04498B601B6883F330
:10359C000888904708BD00BF0440000800ED00E01B
:1035AC0070B594B000240C940D940F941094059461
:1035BC000694079408940994019402940394049437
:1035CC0001250A954FF480330B930E950226119624
:1035DC0012934FF4801313930AA8FDF769FC0F2381
:1035EC000593069607944FF4806308930994294633
:1035FC0005A8FDF79DFE102301934FF4800304935F
:10360C0001A8FDF749FF14B070BD000008B5FCF728
:10361C00BBFDFFF7C5FFFFF765FF00F077F8022150
:10362C000A48FCF7C1FF012802D000F06FF8FEE752
:10363C00064C02212046FCF73BFF4FF4005120467C
:10364C00FCF736FFFFF79CFFF1E700BF000C0140D1
:10365C007047000082B00E4B9A6942F001029A61E9
:10366C009A6902F001020092009ADA6942F08052E3
:10367C00DA61DB6903F080530193019B054A5368BF
:10368C0023F0E06343F08063536002B0704700BFE7
:10369C0000100240000001407047FEE7FEE7FEE725
:1036AC00FEE770477047704708B5FCF77FFD08BD13
:1036BC0008B50248FDF78CFA08BD00BF780600205B
:1036CC000F4B1A6842F001021A6059680D4A0A4001
:1036DC005A601A6822F0847222F480321A601A68D6
:1036EC0022F480221A605A6822F4FE025A604FF4C7
:1036FC001F029A60044B4FF000629A60704700BF43
:10370C00001002400000FFF800ED00E008B50022B8
:10371C000F491048FFF706FA70B90F490D48FFF72B
:10372C0018FA60B90D490B48FEF78DFD50B90948E0
:10373C00FFF716FA48B908BDFFF78AFFEDE7FFF768
:10374C0087FFEFE7FFF784FFF1E7FFF781FFF2E771
:10375C00E4000020B40300207400002000010020CD
:10376C0018B1022803D002207047002070470120B6
:10377C007047000002680E4B9A4200D0704700B5AB
:10378C0083B003F5DA33DA6942F40002DA61DB69FB
:10379C0003F400030193019B002211461420FCF753
:1037AC0029FD1420FCF75AFD03B05DF804FB00BFA3
:1037BC00005C004008B500F50C71D0F86802FFF70A
:1037CC00E8F908BD08B500EB4113D3F83C21D0F85B
:1037DC006802FFF70BFA08BD08B500EB4113DA6B72
:1037EC00D0F86802FFF74BFA08BD08B5D0F86802AC
:1037FC00FFF7EDFA08BD10B504468368022B01D023
:10380C00FFF726FF0121D4F86802FFF7C9FAD4F8B4
:10381C006802FFF79DFA10BD10B50446D0F8680297
:10382C00FFF7C1FAA36923B1024A136943F00603F7
:10383C00136110BD00ED00E008B5D0F86802FFF789
:10384C00BBFA08BD10B504461948C0F86842C4F864
:10385C00C002184B036008234360022383600023DB
:10386C008361C3610362FCF7ACFEE8B91823002244
:10387C001146D4F8C002FDF7EDFA5823002280213E
:10388C00D4F8C002FDF7E6FA982300228121D4F87F
:10389C00C002FDF7DFFAD82300220121D4F8C002C0
:1038AC00FDF7D8FA002010BDFFF7D2FEDEE700BF0F
:1038BC0078060020005C004008B5D0F8C002FCF788
:1038CC00FAFEFFF74DFF08BD10B51C461346224605
:1038DC00D0F8C002FCF71AFFFFF742FF10BD08B585
:1038EC00D0F8C002FCF74AFFFFF73AFF08BD08B555
:1038FC00D0F8C002FDF793FAFFF732FF08BD08B508
:10390C00D0F8C002FDF71DFAFFF72AFF08BD08B575
:10391C00D0F8C002FDF74CFAFFF722FF08BDD0F833
:10392C00C03211F0800F06D101F07F0103EB411181
:10393C0091F82A01704701F07F0103EB411191F8D6
:10394C002A00704708B5D0F8C002FCF7CBFEFFF791
:10395C0007FF08BD08B5D0F8C002FCF763FFFFF7FE
:10396C00FFFE08BD08B5D0F8C002FCF735FFFFF725
:10397C00F7FE08BD08B5D0F8C002FCF74CFF08BD37
:10398C0000487047400100207047704712230B809D
:10399C0000487047B000002004230B80004870479B
:1039AC00C40000200023934216D230B40BE037340D
:1039BC0001F8134000015C00013400250D55013362
:1039CC00DBB2934206D2040F092CF0D8303401F844
:1039DC001340EFE730BC70477047000038B50B4B15
:1039EC00186804331C6804331B68C01800D138BD38
:1039FC00074D082205F11A01FFF7D4FF042205F147
:103A0C002A012046FFF7CEFFF1E700BFE8F7FF1FC2
:103A1C00B000002008B51A230B80FFF7DFFF014828
:103A2C0008BD00BFC800002008B50A4628B10549EA
:103A3C000548FFF707FD034808BD02490248FFF798
:103A4C0001FDF8E7E4080020403C000810B5044CE8
:103A5C000A4621460348FFF7F5FC204610BD00BF7F
:103A6C00E4080020543C000808B50A4628B1054972
:103A7C000548FFF7E7FC034808BD02490248FFF779
:103A8C00E1FCF8E7E4080020683C000808B50A46A9
:103A9C0028B105490548FFF7D5FC034808BD024984
:103AAC000248FFF7CFFCF8E7E4080020743C00085C
:103ABC00002070474FF480330B604FF40073138079
:103ACC00002070470020704700207047012801D863
:103ADC0000207047022070470020704770B518B165
:103AEC0001281BD0022070BD1E4615460C46FCF763
:103AFC00D9FB00210CE002EB452303F1006303F535
:103B0C0080431B78A3540132B2F5007FF3D301310B
:103B1C008E4201D90022F7E70020E4E70020E2E71B
:103B2C00002103E00B4B5B58435004310A480B4B0C
:103B3C0042189A42F6D30A4A02E0002342F8043BA8
:103B4C00084B9A42F9D3FFF7BBFD00F00FF8FFF7D3
:103B5C005DFD70478C3C0008000000202001002017
:103B6C0020010020E40A0020FEE7000070B50025CB
:103B7C000C4E0D4CA41BA410A54209D100F01AF850
:103B8C0000250A4E0A4CA41BA410A54205D170BDF9
:103B9C0056F8253098470135EEE756F8253098470A
:103BAC000135F2E7843C0008843C0008843C0008A2
:103BBC00883C0008F8B500BFF8BC08BC9E467047AE
:0C3BCC00F8B500BFF8BC08BC9E4670476E
:103BD80002030405060708090A0B0C0D0E0F101046
:103BE80001020000000600000000000000000000C4
:103BF80000000000000000030080830000000000B7
:103C08000000000001020304060708090000000084
:103C180001020304008002021F00000045456C6990
:103C280073656576626F6F746C6F61206520202004
:103C380020202020302E303153544D3332204D6116
:103C480073732053746F72616765000053544D6934
:103C580063726F656C656374726F6E69637300007D
:103C68004D534320436F6E66696700004D534320F0
:0C3C7800496E74657266616365000000AF
:043C84003101000802
:043C88000D01000822
:103C8C00010000001000000009022000010104C026
:103C9C0032090400000208065005070581020002E3
:103CAC00000705010200020009022000010104C006
:103CBC003209040000020806500507058102400085
:103CCC00000705010240000009072000010104C0A3
:103CDC003209040000020806500507058102400065
:103CEC0000070501024000000A0600020000004027
:103CFC0001000000152000087B200008AD20000802
:103D0C0000000000000000003F22000849220008CB
:103D1C00000000000000000000000000E51F00088B
:103D2C00F11F0008FD1F0008092000080024F40002
:103D3C00120100020000004083042A570002010215
:103D4C0003010000040309041A0300000000000032
:103D5C000000000000000000000000000000000057
:103D6C000000000099390008A5390008593A0008EC
:103D7C00353A0008213A0008753A0008993A0008CB
:103D8C00BD3A0008C13A0008D13A0008D53A0008FB
:103D9C00E93A0008D93A0008E53A00081C3C00084A
:0400000508003B2D87
:00000001FF
